{
  "contractName": "Transactions",
  "abi": [
    {
      "constant": true,
      "inputs": [
        {
          "internalType": "uint256",
          "name": "",
          "type": "uint256"
        }
      ],
      "name": "transactions",
      "outputs": [
        {
          "internalType": "string",
          "name": "content",
          "type": "string"
        },
        {
          "internalType": "string",
          "name": "messageId",
          "type": "string"
        },
        {
          "internalType": "string",
          "name": "timeStamp",
          "type": "string"
        },
        {
          "internalType": "string",
          "name": "userEmailId",
          "type": "string"
        }
      ],
      "payable": false,
      "stateMutability": "view",
      "type": "function"
    },
    {
      "constant": true,
      "inputs": [],
      "name": "transactionsCount",
      "outputs": [
        {
          "internalType": "uint256",
          "name": "",
          "type": "uint256"
        }
      ],
      "payable": false,
      "stateMutability": "view",
      "type": "function"
    },
    {
      "constant": false,
      "inputs": [
        {
          "internalType": "string",
          "name": "content",
          "type": "string"
        },
        {
          "internalType": "string",
          "name": "messageId",
          "type": "string"
        },
        {
          "internalType": "string",
          "name": "timeStamp",
          "type": "string"
        },
        {
          "internalType": "string",
          "name": "userEmailId",
          "type": "string"
        }
      ],
      "name": "generateTransaction",
      "outputs": [],
      "payable": false,
      "stateMutability": "nonpayable",
      "type": "function"
    }
  ],
  "bytecode": "0x60806040526000805534801561001457600080fd5b50610834806100246000396000f3fe608060405234801561001057600080fd5b50600436106100415760003560e01c80639ace38c214610046578063d354c28b1461020d578063fd99a74614610442575b600080fd5b6100636004803603602081101561005c57600080fd5b503561045c565b6040518080602001806020018060200180602001858103855289818151815260200191508051906020019080838360005b838110156100ac578181015183820152602001610094565b50505050905090810190601f1680156100d95780820380516001836020036101000a031916815260200191505b5085810384528851815288516020918201918a019080838360005b8381101561010c5781810151838201526020016100f4565b50505050905090810190601f1680156101395780820380516001836020036101000a031916815260200191505b50858103835287518152875160209182019189019080838360005b8381101561016c578181015183820152602001610154565b50505050905090810190601f1680156101995780820380516001836020036101000a031916815260200191505b50858103825286518152865160209182019188019080838360005b838110156101cc5781810151838201526020016101b4565b50505050905090810190601f1680156101f95780820380516001836020036101000a031916815260200191505b509850505050505050505060405180910390f35b6104406004803603608081101561022357600080fd5b810190602081018135600160201b81111561023d57600080fd5b82018360208201111561024f57600080fd5b803590602001918460018302840111600160201b8311171561027057600080fd5b91908080601f0160208091040260200160405190810160405280939291908181526020018383808284376000920191909152509295949360208101935035915050600160201b8111156102c257600080fd5b8201836020820111156102d457600080fd5b803590602001918460018302840111600160201b831117156102f557600080fd5b91908080601f0160208091040260200160405190810160405280939291908181526020018383808284376000920191909152509295949360208101935035915050600160201b81111561034757600080fd5b82018360208201111561035957600080fd5b803590602001918460018302840111600160201b8311171561037a57600080fd5b91908080601f0160208091040260200160405190810160405280939291908181526020018383808284376000920191909152509295949360208101935035915050600160201b8111156103cc57600080fd5b8201836020820111156103de57600080fd5b803590602001918460018302840111600160201b831117156103ff57600080fd5b91908080601f0160208091040260200160405190810160405280939291908181526020018383808284376000920191909152509295506106b8945050505050565b005b61044a61075e565b60408051918252519081900360200190f35b60016020818152600092835260409283902080548451600294821615610100026000190190911693909304601f81018390048302840183019094528383529283918301828280156104ee5780601f106104c3576101008083540402835291602001916104ee565b820191906000526020600020905b8154815290600101906020018083116104d157829003601f168201915b505050505090806001018054600181600116156101000203166002900480601f01602080910402602001604051908101604052809291908181526020018280546001816001161561010002031660029004801561058c5780601f106105615761010080835404028352916020019161058c565b820191906000526020600020905b81548152906001019060200180831161056f57829003601f168201915b50505060028085018054604080516020601f600019610100600187161502019094169590950492830185900485028101850190915281815295969594509092509083018282801561061e5780601f106105f35761010080835404028352916020019161061e565b820191906000526020600020905b81548152906001019060200180831161060157829003601f168201915b5050505060038301805460408051602060026001851615610100026000190190941693909304601f81018490048402820184019092528181529495949350908301828280156106ae5780601f10610683576101008083540402835291602001916106ae565b820191906000526020600020905b81548152906001019060200180831161069157829003601f168201915b5050505050905084565b6000805460019081018083556040805160808101825288815260208082018990528183018890526060820187905292855292825290922081518051929391926107049284920190610764565b50602082810151805161071d9260018501920190610764565b5060408201518051610739916002840191602090910190610764565b5060608201518051610755916003840191602090910190610764565b50505050505050565b60005481565b828054600181600116156101000203166002900490600052602060002090601f016020900481019282601f106107a557805160ff19168380011785556107d2565b828001600101855582156107d2579182015b828111156107d25782518255916020019190600101906107b7565b506107de9291506107e2565b5090565b6107fc91905b808211156107de57600081556001016107e8565b9056fea265627a7a72315820cc3d6dce61d2e794f956480a5843b97a676e546a91138ef0129d749f8a7c652a64736f6c63430005100032",
  "source": "pragma solidity ^0.5.0;\n\ncontract Transactions\n{\n    uint public transactionsCount = 0;\n    \n    struct Transaction{\n        string content;\n        string messageId;\n        string timeStamp;\n        string userEmailId;\n    }\n    \n    mapping(uint => Transaction) public transactions;\n\n    function generateTransaction(string memory content, string memory messageId, string memory timeStamp, string memory userEmailId) public\n    {\n        transactionsCount++;\n        transactions[transactionsCount] = Transaction(content, messageId, timeStamp, userEmailId);\n    }\n    \n}",
  "sourcePath": "/Users/rushyasree/Desktop/folder/blockchain_btp/blockchain_codes/Final/contracts/Transactions.sol",
  "compiler": {
    "name": "solc",
    "version": "0.5.16+commit.9c3226ce.Emscripten.clang"
  },
  "schemaVersion": "3.3.4",
  "updatedAt": "2021-02-20T19:29:17.766Z",
  "networkType": "ethereum",
  "devdoc": {
    "methods": {}
  },
  "userdoc": {
    "methods": {}
  }
}