{
  "contractName": "Transactions",
  "abi": [
    {
      "inputs": [],
      "payable": false,
      "stateMutability": "nonpayable",
      "type": "constructor"
    },
    {
      "constant": true,
      "inputs": [
        {
          "internalType": "uint256",
          "name": "",
          "type": "uint256"
        }
      ],
      "name": "transactions",
      "outputs": [
        {
          "internalType": "string",
          "name": "content",
          "type": "string"
        },
        {
          "internalType": "string",
          "name": "messageId",
          "type": "string"
        },
        {
          "internalType": "string",
          "name": "timeStamp",
          "type": "string"
        },
        {
          "internalType": "string",
          "name": "userEmailId",
          "type": "string"
        }
      ],
      "payable": false,
      "stateMutability": "view",
      "type": "function"
    },
    {
      "constant": true,
      "inputs": [],
      "name": "transactionsCount",
      "outputs": [
        {
          "internalType": "uint256",
          "name": "",
          "type": "uint256"
        }
      ],
      "payable": false,
      "stateMutability": "view",
      "type": "function"
    },
    {
      "constant": true,
      "inputs": [],
      "name": "x",
      "outputs": [
        {
          "internalType": "uint256",
          "name": "",
          "type": "uint256"
        }
      ],
      "payable": false,
      "stateMutability": "view",
      "type": "function"
    },
    {
      "constant": false,
      "inputs": [
        {
          "internalType": "uint256",
          "name": "temp",
          "type": "uint256"
        }
      ],
      "name": "inc",
      "outputs": [],
      "payable": false,
      "stateMutability": "nonpayable",
      "type": "function"
    },
    {
      "constant": false,
      "inputs": [
        {
          "internalType": "string",
          "name": "content",
          "type": "string"
        },
        {
          "internalType": "string",
          "name": "messageId",
          "type": "string"
        },
        {
          "internalType": "string",
          "name": "timeStamp",
          "type": "string"
        },
        {
          "internalType": "string",
          "name": "userEmailId",
          "type": "string"
        }
      ],
      "name": "generateTransaction",
      "outputs": [],
      "payable": false,
      "stateMutability": "nonpayable",
      "type": "function"
    }
  ],
  "bytecode": "0x608060405260008055600060015534801561001957600080fd5b506101006040518060400160405280600581526020017f436865636b0000000000000000000000000000000000000000000000000000008152506040518060400160405280600581526020017f636865636b0000000000000000000000000000000000000000000000000000008152506040518060400160405280600581526020017f636865636b0000000000000000000000000000000000000000000000000000008152506040518060400160405280600581526020017f636865636b00000000000000000000000000000000000000000000000000000081525061010560201b60201c565b61026d565b6000808154809291906001019190505550604051806080016040528085815260200184815260200183815260200182815250600260008054815260200190815260200160002060008201518160000190805190602001906101679291906101c8565b5060208201518160010190805190602001906101849291906101c8565b5060408201518160020190805190602001906101a19291906101c8565b5060608201518160030190805190602001906101be9291906101c8565b5090505050505050565b828054600181600116156101000203166002900490600052602060002090601f016020900481019282601f1061020957805160ff1916838001178555610237565b82800160010185558215610237579182015b8281111561023657825182559160200191906001019061021b565b5b5090506102449190610248565b5090565b61026a91905b8082111561026657600081600090555060010161024e565b5090565b90565b6109788061027c6000396000f3fe608060405234801561001057600080fd5b50600436106100575760003560e01c80630c55699c1461005c578063812600df1461007a5780639ace38c2146100a8578063d354c28b14610293578063fd99a74614610513575b600080fd5b610064610531565b6040518082815260200191505060405180910390f35b6100a66004803603602081101561009057600080fd5b8101908080359060200190929190505050610537565b005b6100d4600480360360208110156100be57600080fd5b8101908080359060200190929190505050610545565b6040518080602001806020018060200180602001858103855289818151815260200191508051906020019080838360005b83811015610120578082015181840152602081019050610105565b50505050905090810190601f16801561014d5780820380516001836020036101000a031916815260200191505b50858103845288818151815260200191508051906020019080838360005b8381101561018657808201518184015260208101905061016b565b50505050905090810190601f1680156101b35780820380516001836020036101000a031916815260200191505b50858103835287818151815260200191508051906020019080838360005b838110156101ec5780820151818401526020810190506101d1565b50505050905090810190601f1680156102195780820380516001836020036101000a031916815260200191505b50858103825286818151815260200191508051906020019080838360005b83811015610252578082015181840152602081019050610237565b50505050905090810190601f16801561027f5780820380516001836020036101000a031916815260200191505b509850505050505050505060405180910390f35b610511600480360360808110156102a957600080fd5b81019080803590602001906401000000008111156102c657600080fd5b8201836020820111156102d857600080fd5b803590602001918460018302840111640100000000831117156102fa57600080fd5b91908080601f016020809104026020016040519081016040528093929190818152602001838380828437600081840152601f19601f8201169050808301925050505050505091929192908035906020019064010000000081111561035d57600080fd5b82018360208201111561036f57600080fd5b8035906020019184600183028401116401000000008311171561039157600080fd5b91908080601f016020809104026020016040519081016040528093929190818152602001838380828437600081840152601f19601f820116905080830192505050505050509192919290803590602001906401000000008111156103f457600080fd5b82018360208201111561040657600080fd5b8035906020019184600183028401116401000000008311171561042857600080fd5b91908080601f016020809104026020016040519081016040528093929190818152602001838380828437600081840152601f19601f8201169050808301925050505050505091929192908035906020019064010000000081111561048b57600080fd5b82018360208201111561049d57600080fd5b803590602001918460018302840111640100000000831117156104bf57600080fd5b91908080601f016020809104026020016040519081016040528093929190818152602001838380828437600081840152601f19601f8201169050808301925050505050505091929192905050506107d5565b005b61051b610898565b6040518082815260200191505060405180910390f35b60015481565b806001540160018190555050565b6002602052806000526040600020600091509050806000018054600181600116156101000203166002900480601f0160208091040260200160405190810160405280929190818152602001828054600181600116156101000203166002900480156105f15780601f106105c6576101008083540402835291602001916105f1565b820191906000526020600020905b8154815290600101906020018083116105d457829003601f168201915b505050505090806001018054600181600116156101000203166002900480601f01602080910402602001604051908101604052809291908181526020018280546001816001161561010002031660029004801561068f5780601f106106645761010080835404028352916020019161068f565b820191906000526020600020905b81548152906001019060200180831161067257829003601f168201915b505050505090806002018054600181600116156101000203166002900480601f01602080910402602001604051908101604052809291908181526020018280546001816001161561010002031660029004801561072d5780601f106107025761010080835404028352916020019161072d565b820191906000526020600020905b81548152906001019060200180831161071057829003601f168201915b505050505090806003018054600181600116156101000203166002900480601f0160208091040260200160405190810160405280929190818152602001828054600181600116156101000203166002900480156107cb5780601f106107a0576101008083540402835291602001916107cb565b820191906000526020600020905b8154815290600101906020018083116107ae57829003601f168201915b5050505050905084565b60008081548092919060010191905055506040518060800160405280858152602001848152602001838152602001828152506002600080548152602001908152602001600020600082015181600001908051906020019061083792919061089e565b50602082015181600101908051906020019061085492919061089e565b50604082015181600201908051906020019061087192919061089e565b50606082015181600301908051906020019061088e92919061089e565b5090505050505050565b60005481565b828054600181600116156101000203166002900490600052602060002090601f016020900481019282601f106108df57805160ff191683800117855561090d565b8280016001018555821561090d579182015b8281111561090c5782518255916020019190600101906108f1565b5b50905061091a919061091e565b5090565b61094091905b8082111561093c576000816000905550600101610924565b5090565b9056fea265627a7a7231582011d25ab86432e576ae6e61f95f0675b21529a70c2f2c3489728d62081b3d850c64736f6c63430005100032",
  "source": "pragma solidity >=0.4.22 <0.9.0;\n\n\ncontract Transactions\n{\n    uint public transactionsCount = 0;\n    \n    uint public x = 0;\n\n\n    constructor() public {\n        generateTransaction(\"Check\",\"check\",\"check\",\"check\");\n    }\n\n    struct Transaction{\n        string content;\n        string messageId;\n        string timeStamp;\n        string userEmailId;\n    }\n    \n    mapping(uint => Transaction) public transactions;\n\n    function inc(uint temp) public\n    {\n        x = x + temp;\n    }\n\n    function generateTransaction(string memory content, string memory messageId, string memory timeStamp, string memory userEmailId) public\n    {\n        transactionsCount++;\n        transactions[transactionsCount] = Transaction(content, messageId, timeStamp, userEmailId);\n    }\n    \n}",
  "sourcePath": "/Users/rushyasree/Desktop/folder/blockchain_btp/blockchain_codes/Final/contracts/Transactions.sol",
  "compiler": {
    "name": "solc",
    "version": "0.5.16+commit.9c3226ce.Emscripten.clang"
  },
  "schemaVersion": "3.3.4",
  "updatedAt": "2021-02-22T05:14:56.878Z",
  "networkType": "ethereum",
  "devdoc": {
    "methods": {}
  },
  "userdoc": {
    "methods": {}
  }
}